:100610006163636F756E740A0067756573730A00B2
:10062000717569740A003F065B4F666D7D077F6FC9
:10063000777C4000FEFDFBF7EFDFBF7F0102010288
:100640000201030201060202050202060202010083
:100650000101000106000204000206020104020179
:100660000402010602010400030300030200030167
:100670000003010101020101030101040101F2F380
:10068000F5F5F6F7F8F9F9FAFAFBFBFCFCFCFDFDD1
:10069000FDFDFEFEFEFEFEFEFEFF42C117B6D0D1FE
:1006A000B621E18CD868E95B8FEE446BB4F42D473A
:0606B00077A2B6DAFA168B
:1009680001570001560009593030303030303030EE
:1009780038015800015200014C000254012C015367
:040988000001210049
:100A1000E4F580D2B7C2B7E5212F90063493F58074
:100A2000D2B6C2B674232521F8E6F580D2B7C2B794
:0A0A30000521E521B50503E4F521D9
:010A3A002299
:10043F00E5537051E52B64387034FBEBC39558507E
:10044F001374642BF8E69005F693FF74232BF8A62C
:10045F00070B80E7AB58EBC39408400302055E908F
:10046F000632E493FF74232BF8A6070B80E8E4FB16
:10047F0074592BF8E69005F693FF74232BF8A60713
:10048F000BBB08EC22E5526003020542AE54AF5598
:10049F00FC7D641206E174262FF58274063EF58307
:1004AF00E493F523AE54AF557C007D0A1206E17C30
:1004BF00007D0A1206E174262DF58274063CF58341
:1004CF00E493F524AE54AF557C007D0A1206E17417
:1004DF00262DF58274063CF583E493F525E4F52685
:1004EF00E55760177B0474092BF8E690062693FFF7
:1004FF0074232BF8A6070BBB08EC227B04E55824CA
:10050F0004FFE433FEEBC39FEE6480F874809850D1
:10051F001374492BF8E69005F693FF74232BF8A676
:10052F00070B80D9EBC39408502574232BF8E4F6FE
:10053F000B80F1E4FBE55275F008A424242BF8E6B8
:0F054F0090062693FF74232BF8A6070BBB08E634
:01055E00227A
:0A0B3200438901D2AFD2A9D28C2270
:03000B0002092DBA
:10092D00C0E0C083C082C0D075D000C000C005C07B
:10093D00077D08E4FF120A10E556600AB2A0856231
:10094D008C85638A8006758CFC758A18D007D00556
:0B095D00D000D0D0D082D083D0E03298
:020A9D008F1BAD
:100A9F00E4F51CE51CC3951B50097F6412000E057D
:050AAF001C80F0C28C68
:010AB400221F
:0B0AB500E51993F52274032519F519CB
:0D0AC00085628C85638AD28CAF22020A9D6C
:020290008F18C5
:10029200E4F519755601E51864327035E519C39411
:1002A200124003020433E51990063D9375F007A44A
:1002B200FFE51990063C932F14F51A90067E93F5EC
:1002C20062E51A90069A93F56390063E120AB5808B
:1002D200CBE51864347035E519C394064003020473
:1002E20033E5199006559375F007A4FFE5199006BA
:1002F20054932F14F51A90067E93F562E51A900630
:100302009A93F563900656120AB580CBE5186431CC
:100312007037E519C394064003020433E5199006C9
:100322004F9375F007A4FFE51990064E932F14F52D
:100332001A90067E93F562E51A90069A93F563E5A4
:1003420019900650120AB780C9E51864337037E570
:1003520019C3940C4003020433E5199006679375A0
:10036200F007A4FFE519900666932F14F51A90067C
:100372007E93F562E51A90069A93F563E519900665
:1003820068120AB780C9E51864357037E519C39455
:100392000C4003020433E5199006739375F007A429
:1003A200FFE519900672932F14F51A90067E93F5C5
:1003B20062E51A90069A93F563E519900674120A9B
:1003C200B780C9E51864377034E519C394065061E3
:1003D200E5199006619375F007A4FFE51990066090
:1003E200932F14F51A90067E93F562E51A90069AF9
:1003F20093F563E519900662120AB780CCE519C33A
:100402009406502DE51990065B9375F007A4FFE55D
:100412001990065A932F14F51A90067E93F562E509
:100422001A90069A93F563E51990065C120AB78052
:0C043200CCE4F556758CFC758A18D28C51
:01043E00229B
:100A3B00C37405954C14601014601014601014608E
:100A4B00102404700ED2A722D2A622D2A522D2A4A1
:040A5B0022D2A322DE
:0E0B1600EF24FF92A792A692A592A492A3228A
:1009DD007F01120B16E4F558F54CF553F552F5570A
:1009ED00F50A75540175552CE52BB437157BFF7A37
:1009FD00067910120A8375610A7B007A0079591203
:030A0D000A832237
:10002600120B32120B24D2AC7B007A007959751D63
:10003600097D047FAE12085085612BE52B6437706D
:10004600477BFF7A067910120A8375610A7B007A6C
:10005600007959120A83AF2B120290E4F515742326
:100066002515F8E4F60515E515B408F2E4F515745A
:10007600592515F8E69005F693FF74232515F8A67D
:10008600070515E515B408E71207E88F16E516F417
:100096007003020187E51664136003020121E52B54
:1000A60064387050E5586408704AF515746425156F
:1000B600F8E6FF74592515F8A6070515E515B408E1
:1000C600EB752B37852B617B007A007959751D09F5
:1000D6007D047FAE1209A375610A7BFF7A0679104B
:1000E600120A837B007A007959120A83AF2B120217
:1000F60090020187E5537003020187E558640460A6
:10010600030201877BFF7A067919120A8375510A61
:100116007B007A00794D120A838066E516B4120ECA
:10012600E558600414FF80027F008F588053E5165F
:10013600B4100EE552254CFFE54C04FEEF8EF08020
:100146000EE516B4110FE54C04FFE552048FF0845A
:1001560085F052802CE52BB4380FE558C39408502F
:1001660008AF58055874648014E5536014E558C305
:100176009404500DE4F557AF580558744D2FF8A662
:1001860016E50C450B603CE51224CE600F14600E9C
:1001960014601514601924047024800C8000AF12BA
:1001A6001202901209DD8016AF12120290800FAF74
:1001B60012120290755301E4F558FF120B16E4F57E
:1001C6000BF50CE50A606AE509640445087062F5FA
:1001D6000AF515740D2515F8E6FF64416004EFB4C1
:1001E6004206E624C9F68009740D2515F874D02652
:1001F600F6740D2515F8E6FFE54C75F008A4242CD9
:100206002515F8A607744D2515F8E624D0FFE54C0C
:1002160075F008A424302515F8A6070515E515B4CC
:1002260004B1755701054C120A3BE4F558F508F57B
:100236000920A250E52B6437704A751701F5153071
:10024600A205E4F517800E7F0A12000E0515E515C6
:10025600C3946440EAE51760FCE5176027752B3800
:10026600852B617B007A007959751D097D047FAE67
:100276001209A37BFF7A067920120A83AF2B12029A
:0A028600901209DD12043F02008E01
:10055F007590F0E59064F0700302060D7F0A1200AB
:10056F000EE59064F0700302060D7590FEE5906441
:10057F00FE601CE59054F0F518240EF518E590B4C4
:10058F00FEFB7F0A12000EE590B4FEFBAF1822753A
:10059F0090FDE59064FD601CE59054F0F518240D76
:1005AF00F518E590B4FDFB7F0A12000EE590B4FD3F
:1005BF00FBAF18227590FBE59064FB601CE590542F
:1005CF00F0F518240BF518E590B4FBFB7F0A120029
:1005DF000EE590B4FBFBAF18227590F7E59064F72A
:1005EF00601CE59054F0F5182407F518E590B4F762
:1005FF00FB7F0A12000EE590B4F7FBAF18227FFFC6
:01060F0022C8
:1007E80012055FEF120736082C7708297B08267D4B
:1007F80008237E0841B70835BB0832BD082FBE085C
:1008080041D7083EDB083BDD0838DE084DE7084ADB
:10081800EB0847ED0844EE000008417F31227F34A1
:10082800227F37227F30227F32227F35227F382273
:100838007F33227F36227F39227FFF227F10227F5B
:0808480011227F12227F13220E
:10098C00020B00000213000402080000050D3939A7
:06099C0039390A010A00CE
:0E0B2400759850438920758DFDD28ED2AF2278
:080003008F993099FDC299228A
:100A83001206B6FF60131200031206B6640A600969
:0A0A9300740129F9E43AFA80E72221
:030023000208A32D
:0B08A300C0E0C0D075D000C000C0074E
:1008AE00309837C298AF99BF360AE5551555702A5C
:1008BE0015548026E50AB40111740D2509F8A60712
:1008CE000509E509701405088010750B00750C01FB
:0A08DE008F12E512B43403750A010D
:0908E800D007D000D0D0D0E032DE
:100ACD00D2B500D2B40000000000C2B50000000095
:060ADD0000C2B40000227B
:100AE300C2B500D2B40000000000D2B5000000007F
:010AF30022E0
:1008F100E4FEEFA806088002C333D8FC30E704D237
:10090100B58002C2B500D2B40000000000C2B40E2E
:10091100BE08DF0000D2B50000D2B400000030B53F
:0B09210004C2008002D200C2B400003B
:01092C0022A8
:100A5F00E4FFD2B5FE00C2B40000000000D2B40023
:100A6F0000EF25E0FF30B5010F00000EBE08E6C213
:030A7F00B40000C0
:010A82002251
:100AF400C2B5000000D2B40000000000C2B400007F
:010B040022CE
:100B0500D2B5000000D2B40000000000C2B400005D
:010B150022BD
:0209A300AE079D
:1009A500120ACD1208F1200002C322AF051208F188
:1009B500200002C322E4FDEDC3951D50161206B6B4
:1009C500FF1208F1200002C322740129F9E43AFA62
:0709D5000D80E4120AE3D3D8
:0109DC0022F8
:02085000AC07F3
:10085200120ACD1208F1200002C322AF051208F1DC
:10086200200002C322120ACDEC04FF1208F120007C
:1008720002C322E4FDE51D14FFEDC39F5014120ACA
:100882005FEF1206CF120AF4740129F9E43AFA0D65
:1008920080E3120A5FEF1206CF120B05120AE3D3AE
:0108A2002233
:030B3C00DFFE22B7
:10000E00AE07AF061EEF600C7FF5120B3C7FF512AC
:05001E000B3C80EE2206
:0300000002075C98
:0C075C00787FE4F6D8FD75816B0207A3DE
:1006B600BB010689828A83E0225002E722BBFE0242
:0906C600E32289828A83E4932275
:1006CF00BB010689828A83F0225002F722BBFE010A
:0206DF00F32204
:1006E100BC000BBE0029EF8DF084FFADF022E4CCFD
:1006F100F875F008EF2FFFEE33FEEC33FCEE9DECC6
:10070100984005FCEE9DFE0FD5F0E9E4CEFD22ED0B
:10071100F8F5F0EE8420D21CFEADF075F008EF2F55
:10072100FFED33FD4007985006D5F0F222C398FD46
:050731000FD5F0EA22E3
:10073600D083D082F8E4937012740193700DA3A352
:1007460093F8740193F5828883E473740293686066
:06075600EFA3A3A380DF66
:10076800020026E493A3F8E493A34003F68001F281
:1007780008DFF48029E493A3F85407240CC8C33392
:10078800C4540F4420C8834004F456800146F6DF61
:10079800E4800B0102040810204080900968E47E80
:1007A800019360BCA3FF543F30E509541FFEE49356
:1007B800A360010ECF54C025E060A840B8E493A31D
:1007C800FAE493A3F8E493A3C8C582C8CAC583CA48
:1007D800F0A3C8C582C8CAC583CADFE9DEE780BE00
:0109A2000054
:00000001FF
